:020000040800F2
:10000000180E0020990700086D0500086F0500080C
:1000100073050008770500087B0500080000000054
:100020000000000000000000000000007F05000844
:100030008105000800000000830500088505000810
:10004000B3070008B3070008B3070008B3070008A8
:10005000B3070008B3070008F9300008B307000829
:10006000B3070008B3070008B3070008B307000888
:10007000B3070008B3070008B3070008B307000878
:10008000B3070008B3070008B3070008B307000868
:10009000B3070008B3070008B3070008B307000858
:1000A000B3070008B3070008B3070008B307000848
:1000B000B3070008B3070008B3070008B307000838
:1000C000B3070008B3070008B3070008B307000828
:1000D000B307000809260008012E0008712F000848
:1000E000B3070008B3070008B3070008B307000808
:1000F000B3070008B3070008B3070008B3070008F8
:10010000B3070008B3070008B3070008B3070008E7
:10011000B3070008B3070008272D0008FD2C0008CE
:10012000B3070008B3070008B3070008B3070008C7
:10013000B3070008B3070008B3070008B3070008B7
:10014000B3070008B3070008B3070008B3070008A7
:10015000B3070008B3070008B3070008B307000897
:10016000B3070008B3070008B3070008B307000887
:10017000B3070008B3070008B3070008B307000877
:10018000B3070008B307000800F002F800F092F887
:100190000AA090E8000C82448344AAF10107DA45E2
:1001A00001D100F087F8AFF2090EBAE80F0013F0A2
:1001B000010F18BFFB1A43F001031847E84900007C
:1001C000084A0000103A24BF78C878C1FAD852070C
:1001D00024BF30C830C144BF04680C6070470000C1
:1001E0000023002400250026103A28BF78C1FBD840
:1001F000520728BF30C148BF0B6070476E2903F01B
:100200000A82702903F07583662904F064836529E6
:1002100004F06183672904F05E836129AFF30080F5
:1002200003681B0A28BF41F08001692903F00A8096
:10023000642903F00780752903F004806F2903F017
:100240000383782903F04183E92903F09D82E4299F
:1002500003F09A82F52903F09782EF2903F00083D7
:10026000F82903F040830368DB0928BF41F08001CF
:10027000632903F00C82732903F01182E32903F050
:10028000C685F32903F0CB85002070471FB504F025
:100290001DFB03F019FE04000020002104F000FB08
:1002A000401C60600020002104F0E4FAE0601FBD03
:1002B00010B510BD03F0DBFD1146FFF7E7FF00F0BE
:1002C00009F803F0B3FE03B4FFF7F2FF03BC02F03A
:1002D0003BF900004FF4A06000F07EFAA82002F085
:1002E000B1F802F059FA02F020FF4FF4164002F084
:1002F00039F94FF4164002F06BFE4FF4164002F04D
:10030000AFFD51A15DA002F051FF07E05DA15BA030
:1003100002F04CFF4FF4FA7002F0F6F84FF4FA7264
:100320005DA15EA002F0E9FA0028EFD1C8225AA12F
:100330005BA002F0E2FA07E05BA150A002F036FFFA
:100340004FF4FA7002F0E0F802F012FB0028F3D14B
:100350004FF4FA7002F0D8F807E059A147A002F074
:1003600025FF4FF4FA7002F0CFF85AA002F04DFBCF
:100370000028F2D148A15C4803F064F80028ECD0D2
:1003800060E05AA002F041FB0446214659A002F069
:100390000DFF002C2BD1544D59A1284603F052F8E3
:1003A00000283AD0284602F017FA064658A13046EF
:1003B00003F048F8B0B1304602F027FA0746564835
:1003C0000178384602F094FB804654A1404603F081
:1003D00039F818B9404602F018FB1EE0404602F01A
:1003E00014FB1AE04FA153A002F0E0FE15E052A169
:1003F00022A002F0DBFEC82227A129A002F07DFA8C
:1004000007E029A11DA002F0D1FE4FF4FA7002F01E
:100410007BF802F0ADFA0028F3D13F48007838B1FC
:100420005148006808B9012000E000204E490860EA
:100430004D48001D006808B9012000E000204A492D
:10044000091D08609DE7000073746172742D2D2DE5
:100450002D2D2D2D2D2D2D2D2D2D2D2D2D2D2D2DCC
:100460002D2D2D2D2D2D2D2D2D2D2D2D2D2D2D2DBC
:100470002D2D2D2D2D2D73746172740025730D0A91
:10048000000000006E6F7420666F756E64207369E3
:100490006D393030410000004F4B000041540000E6
:1004A000415445300000000074727920746F20635D
:1004B0006F6E6E6563742073696D39303041000072
:1004C00074727920746F2073656E64206361724961
:1004D0004400000063617249443A313532393630A4
:1004E00030323538370000002806002076697369FD
:1004F000740000007265733A25642E2E2E0D0A00DA
:100500006765745F636F6D6D616E643A0000000033
:100510006861766500000000000000206E756C6C5C
:10052000000000006E6F20726571756573742E2E69
:100530002E0D0A00257300007761726E6E696E677A
:100540002121212121746865726520697320616E03
:100550002065726F72212D212D212D212D212D211C
:100560002D212D212D212D00A4824242704700BF54
:10057000FEE700BFFEE700BFFEE700BFFEE77047F3
:1005800070477047704700000CB500200190009044
:100590007648006840F480307449086000BF7348B2
:1005A000006800F4003000900198401C0190009811
:1005B00018B90198B0F5A04FF1D16C48006800F46B
:1005C000003010B10120009001E000200090009860
:1005D000012846D165484030006840F080506349AA
:1005E000403108606248006840F44040604908605B
:1005F0005E48083000685D490831086008460068B8
:1006000040F4004008600846006840F4A0500860CC
:100610005848091F0860081F006840F08070091FD3
:10062000086000BF5148006800F000700028F9D051
:1006300040F20570504908604C480830006820F0CE
:1006400003004A49083108600846006840F002008B
:10065000086000BF45480830006800F00C0008281A
:10066000F8D10CBD10B54548006840F4700043490E
:1006700008603E48006840F001003C4908600020E6
:100680003A4908310860394800683D49084037490F
:1006900008603C48091D0860081F006820F480209D
:1006A000091F0860002031490C310860FFF76CFF1A
:1006B0004FF0006031498039086010BD70B50020EE
:1006C0000022022300240221284D08352D6805F060
:1006D0000C0020B1042806D0082834D107E02A4DA8
:1006E0002A4E356033E02A4D284E35602FE01F4DED
:1006F0002D1D2D68C5F380541C4D2D1D2D6805F052
:100700003F0154B1224DB5FBF1F5184E361D366848
:10071000C6F3881605FB06F209E01B4DB5FBF1F5A3
:10072000124E361D3668C6F3881605FB06F20F4DCD
:100730002D1D2D68C5F301456D1C6B00B2FBF3F553
:10074000124E356003E0104D104E356000BF00BF03
:10075000064D08352D68C5F303150E4E705D0B4D23
:100760002D68C540094E356070BD0000003802405C
:100770000070004008544007003C024088ED00E053
:10078000FFFFF6FE103000240024F40004000020D7
:1007900000127A00080000200948804709480047F5
:1007A000FEE7FEE7FEE7FEE7FEE7FEE7FEE7FEE721
:1007B000FEE7FEE704480549054A064B704700007E
:1007C000650600088901000818080020180E00209E
:1007D000180A0020180A002032490143324A1160E9
:1007E000704770B5002100230F22C4781CB32E4C33
:1007F000246804F4E064C4F5E064C4F30721C1F1A3
:100800000404E3B20A4144789C40E1B28478144085
:1008100021430C07210E254C05786155047804F01E
:100820001F050124AC4005786D11AD0005F1E025F0
:10083000C5F8004109E0047804F01F050124AC402C
:100840001B4D0678761145F8264070BD194A0A40BE
:100850000243154B1B1F1A60704739B1124A121D13
:1008600012680243104B1B1D1A6006E00E4A121D4F
:10087000126882430C4B1B1D1A607047042808D174
:100880004FF0E021096941F004014FF0E0221161CD
:1008900007E04FF0E021096921F004014FF0E02268
:1008A000116170470000FA050CED00E000E400E083
:1008B00080E100E080FFFF1F002041490860091D22
:1008C0000860091D0860091D08603E483C49143154
:1008D0000860704700213A498279002A3AD00A46D6
:1008E000126803689A430B461A600A1D126803686F
:1008F0009A430B1D1A60027911440A6803681A436F
:100900000A602F4A0832126803689A432C4B083356
:100910001A601A1D126803689A43294B0C331A6037
:100920004279102A0ED11A1F126803681A43244B09
:1009300008331A601A1D126803681A43204B0C33DF
:100940001A600DE01E49427911440A6803681A438F
:100950000A6005E0027911440A6803689A430A6054
:1009600070470021016001710C21417100218171EA
:1009700070471349103109680143114A1032116060
:100980007047014600200E4A143212680A400AB12C
:10099000012000E0002070470949143108607047C9
:1009A00001460020064A143212680A400AB10120AA
:1009B00000E00020704702491431086070470000D1
:1009C000003C0140FFFF7F0010B504469848844278
:1009D00008D10121084600F086FB0021012000F02B
:1009E00082FB76E09348844208D10121022000F086
:1009F0007AFB0021022000F076FB6AE08E488442F8
:100A000008D10121042000F06EFB0021042000F039
:100A10006AFB5EE08948844208D10121082000F089
:100A200062FB0021082000F05EFB52E08448844213
:100A300008D10121102000F056FB0021102000F009
:100A400052FB46E07F48844208D10121202000F07B
:100A50004AFB0021202000F046FB3AE07A4884421D
:100A600008D10121402000F03EFB0021402000F091
:100A70003AFB2EE07548844208D10121802000F025
:100A800032FB0021802000F02EFB22E070488442DF
:100A900008D10121801500F026FB0021A01500F0EF
:100AA00022FB16E06B48844208D10121401500F07A
:100AB0001AFB0021601500F016FB0AE0664884422C
:100AC00007D10121001500F00EFB0021201500F0D8
:100AD0000AFB10BDF0B50A4600210023002400BF28
:100AE0003DE0012505FA01F3156805EA03049C427F
:100AF00034D105684F000326BE40B5430560157923
:100B00004E00B5400668354305601579012D02D0C9
:100B10001579022D16D185684F000326BE40B543D6
:100B2000856055794E00B5408668354385604568D7
:100B300001268E40B5434560456896798E40B6B231
:100B400035434560C5684F000326BE40B543C560C8
:100B5000D5794E00B540C6683543C560491C10299B
:100B6000BFD3F0BD4FF6FF710160002101714171EB
:100B70008171C171704708B54FF480320092009ABC
:100B80000A430092009AC261C161009AC261C269BF
:100B90000092C269009208BD0246002013690B4012
:100BA0000BB1012000E0002070470146086980B2C7
:100BB00070470246002053690B400BB1012000E052
:100BC000002070470146486980B270470183704732
:100BD000418370470AB1018300E04183704741615E
:100BE000704742694A4042617047F0B500230024D3
:100BF0004D07ED0E02FA05F3CE1000F1200555F871
:100C000026504E07F70E0F26BE40B543CF1000F119
:100C1000200646F82750CE1000F1200555F8265042
:100C200045EA0304CE1000F1200545F82640F0BD4A
:100C3000000002400004024000080240000C024094
:100C4000001002400014024000180240001C024044
:100C5000002002400024024000280240F9480068B9
:100C600040F00100F74908600020F64908310860AB
:100C7000F4480068F4490840F2490860F348091D47
:100C80000860F348EF4984310860F0481038091DC6
:100C90000860EC48006820F48020EA4908600020E1
:100CA000E8490C310860E7498C3108607047002141
:100CB000E44A921C117011460870704710B5014645
:100CC0000022002300204A11012A02D1DD4C2368B2
:100CD00008E0022A03D1DB4C7034236802E0D94CCF
:100CE0007434236801F01F02012494401C400CB1AD
:100CF000012000E0002010BD38B500200090002445
:100D0000002500BF3120FFF7D9FF05460098401CA1
:100D100000900098B0F5A04F01D0002DF2D0312006
:100D2000FFF7CCFF08B1012400E00024204638BDC5
:100D300001460020C34A106820F0F80040EAC100D4
:100D400010607047C349086070470021BD4A703287
:100D500011701170012802D004280AD104E0012189
:100D6000B84A7032117005E00521B64A7032117030
:100D700000E000BF00BF7047B7490860704770B51A
:100D8000049C41EA82150126C6EB530645EA064556
:100D9000054345EA0465AB4E361D356070BDAD496F
:100DA00008667047820142EA0172A64B84331A60DA
:100DB0007047A8498866704710B5830143EA01630C
:100DC00043EA02739F4C8834236010BDA149086731
:100DD0007047A049C864704702460020994B083309
:100DE000186820F0EC6042EA01031843954B083381
:100DF0001860704702460020924B0833186820F0B4
:100E0000784042EA010318438E4B0833186070475C
:100E1000014600208B4A0832106820F00300084386
:100E20001060704787480830006800F00C00704779
:100E300001460020834A0832106820F0F000084381
:100E400010607047014600207E4A0832106820F486
:100E5000E05008431060704701460020794A08328C
:100E6000106820F4604040EAC10010607047F0B59F
:100E7000002100220024022500260223714F08379A
:100E80003F6807F00C0121B1042905D0082937D1AA
:100E900005E0724F076036E0714F076033E0694F3D
:100EA0003F1D3F68C7F38056664F3F1D3F6807F000
:100EB0003F036EB16A4FB7FBF3F7DFF888C10CF15F
:100EC000040CDCF800C0CCF3881C07FB0CF40CE02D
:100ED000624FB7FBF3F7DFF86CC10CF1040CDCF8E0
:100EE00000C0CCF3881C07FB0CF4564F3F1D3F6835
:100EF000C7F301477F1C7D00B4FBF5F7076002E0F4
:100F0000564F076000BF00BF4E4F08373F6807F0DD
:100F1000F0010909534F7A5C0768D7404760494F91
:100F200008373F6807F4E051890A4E4F7A5C4768FA
:100F3000D7408760434F08373F6807F46041490B4B
:100F4000484F7A5C4768D740C760F0BD002100F485
:100F50004072B2F5407F0AD13A4A0832116821F452
:100F6000F811414A02401143364A08321160354AAD
:100F700070321268C0F30B031A43324B70331A609D
:100F80007047354944390860704733494039086033
:100F9000704736490860704701460020294A8C3264
:100FA000106820F01F004A1E1043264A8C32106041
:100FB000704701460020234A8C32106820F4F85014
:100FC0004A1E40EA02201F4A8C32106070470146D8
:100FD00000201C4A8C32106820F440100843106036
:100FE000704701460020174A8C32106820F44000F8
:100FF00008431060704701460020124A8C32106886
:1010000020F4403008431060704719490860704769
:1010100039B10C4A3032126802430A4B30331A603D
:1010200006E0084A303212688243064B30331A60B9
:101030007047F9B1034A343212680243014B34332A
:101040001A601CE000380240FFFFF6EA103000246E
:101050000030002000004742800E47420024F40088
:1010600000127A0018000020FFFCFF0F5C014742CD
:10107000E01147428F4A126882438E4B1A607047D4
:1010800039B18C4A121D126802438A4B1B1D1A602B
:1010900006E0884A121D12688243864B1B1D1A60A7
:1010A000704739B1834A0C3212680243814B0C33CA
:1010B0001A6006E07F4A0C32126882437D4B0C3383
:1010C0001A60704739B17B4A103212680243794B7B
:1010D00010331A6006E0774A103212688243754B6B
:1010E00010331A60704739B1724A243A12680243C9
:1010F000704B243B1A6006E06E4A243A1268824321
:101100006C4B243B1A60704739B16A4A203A126826
:101110000243684B203B1A6006E0664A203A126898
:101120008243644B203B1A60704739B1614A1C3AD4
:10113000126802435F4B1C3B1A6006E05D4A1C3A92
:10114000126882435B4B1C3B1A60704739B1594AA5
:10115000143A12680243574B143B1A6006E0554A92
:10116000143A12688243534B143B1A60704739B1EA
:10117000504A103A126802434E4B103B1A6006E088
:101180004C4A103A126882434A4B103B1A6070472F
:1011900039B1484A1C3212680243464B1C331A606C
:1011A00006E0444A1C3212688243424B1C331A60E8
:1011B000704739B13F4A2032126802433D4B203319
:1011C0001A6006E03B4A203212688243394B2033D2
:1011D0001A60704739B1374A243212680243354BDE
:1011E00024331A6006E0334A243212688243314BBA
:1011F00024331A60704739B12E4A2C3212680243E8
:101200002C4B2C331A6006E02A4A2C321268824397
:10121000284B2C331A60704739B1264A3032126895
:101220000243244B30331A6006E0224A30321268FF
:101230008243204B30331A607047012808D11D4982
:101240003C31096841F008011A4A3C32116007E05C
:1012500018493C31096821F00801164A3C321160F6
:10126000704739B1134A273A12780243114B273B92
:101270001A7006E00F4A273A127882430D4B273B3B
:101280001A7070470B484030006840F08070094980
:1012900040310860704701460020064A283A12682B
:1012A0000A400AB1012000E00020704701492639B8
:1012B000087070473438024010B501218803FFF7E9
:1012C00056FF00214FF48040FFF751FF10BD1C492D
:1012D000086070471B490862704730B500228B07D1
:1012E0001C0F0F2303FA04F2154B08338C1053F82C
:1012F00024309343124C08348D1044F82530234693
:101300008C1053F824308C07240F00FA04F4234384
:101310000B4C08348D1044F8253030BD0949DC31C0
:101320000860704708490860704700200449203170
:10133000096801F4807109B1012000E000207047C4
:1013400000380140000027420004274210B504463F
:10135000FE48844208D101210846FFF708FF00211A
:101360000120FFF704FF9DE0B4F1804F08D1012177
:101370000846FFF7EBFE00210120FFF7E7FE91E0B2
:10138000F348844208D101210220FFF7DFFE00214B
:101390000220FFF7DBFE85E0EE48844208D1012100
:1013A0000420FFF7D3FE00210420FFF7CFFE79E0F1
:1013B000E948844208D101210820FFF7C7FE002137
:1013C0000820FFF7C3FE6DE0E448844208D1012104
:1013D0001020FFF7BBFE00211020FFF7B7FE61E0F1
:1013E000DF48844208D101212020FFF7AFFE002111
:1013F0002020FFF7ABFE55E0DA48844208D10121F6
:101400000220FFF7B4FE00210220FFF7B0FE49E002
:10141000D548844209D101210804FFF7A8FE002124
:101420004FF48030FFF7A3FE3CE0D048844209D15E
:1014300001214804FFF79BFE00214FF40030FFF725
:1014400096FE2FE0CA48844209D101218804FFF7A3
:101450008EFE00214FF48020FFF789FE22E0C54870
:10146000844208D101214020FFF770FE0021402076
:10147000FFF76CFE16E0C048844208D101218020AD
:10148000FFF764FE00218020FFF760FE0AE0BB4802
:10149000844207D101218015FFF758FE0021A015D5
:1014A000FFF754FE10BD00220288A84B98420ED0D0
:1014B000AC4B98420BD0B0F1804F08D0A44B98426F
:1014C00005D0A44B984202D0A34B984204D14FF6CA
:1014D0008F731A404B881A43A04B984207D0A04BF9
:1014E000984204D04FF6FF431A400B891A430280FA
:1014F0004B68C3620B880385944B984202D0994B8A
:10150000984201D18B7A03860123838270474FF082
:10151000FF3141600021018001814180817270476B
:101520000185828270470A46002101884FF68F7339
:10153000194011430180704741627047C162704792
:101540000146486A70470146088D704721B10288FC
:1015500042F00202028004E002884FF6FD731A4056
:101560000280704721B1028842F00402028004E048
:1015700002884FF6FB731A400280704721B102883F
:1015800042F08002028004E002884FF67F731A4026
:101590000280704702884FF6F7731A400280028873
:1015A0000A430280704702884FF6FF431A400280C8
:1015B00002880A430280704721B1028842F001028A
:1015C000028004E002884FF6FE731A4002807047E2
:1015D00070B5002400220023058C4FF6FE763540BE
:1015E0000584028C8388048B4FF68F752C40B51EC2
:1015F0002C400D882C43751E2A408D892A434D8826
:101600002A43524DA84202D0564DA84213D14FF65C
:10161000F7752A40CD892A434FF6FB752A408D88FD
:101620002A434FF6FF652B404FF6FF552B400D8A9E
:101630002B434D8A2B43838004838D68456302844A
:1016400070BD70B5002400220023058C4FF6EF76A4
:1016500035400584028C8388048B48F6FF752C4046
:101660004FF6FF452C400D884FF6FF7606EA05251C
:101670002C434FF6DF752A408D8906EA05152A436B
:101680004D8806EA05152A43304DA84202D0354D53
:10169000A8421DD14FF67F752A40CD894FF6FF76BF
:1016A00006EA05152A434FF6BF752A408D8806EADB
:1016B00005152A434FF6FF352B404FF2FF752B409F
:1016C0000D8A06EA85052B434D8A06EA85052B43DC
:1016D000838004838D688563028470BD70B50024A7
:1016E00000220023058C4FF6FF6635400584028CEE
:1016F0008388848B4FF68F752C404FF6FC752C40F9
:101700000D882C434FF6FF552A408D894FF6FF7602
:1017100006EA05252A434D8806EA05252A430B4D8E
:10172000A84202D00F4DA84238D14FF2FF752A408F
:10173000CD894FF6FF7606EA05252A434FF6FF3599
:101740002A408D8806EA05252A4319E00000014059
:101750000004004000080040000C00400010004061
:1017600000140040000401400040014000440140DA
:101770000048014000180040001C004000200040CC
:101780004EF6FF752B404DF6FF752B400D8A06EA8D
:1017900005152B434D8A06EA05152B438380848368
:1017A0008D68C563028470BD70B5002200230024DB
:1017B000058C4EF6FF7635400584038C8488828B39
:1017C00048F6FF752A404FF6FF452A400D884FF630
:1017D000FF7606EA05252A434DF6FF752B408D89D5
:1017E00006EA05352B434D8806EA05352B43FE4DA9
:1017F000A84202D0FD4DA84208D14BF6FF752C40FF
:101800000D8A4FF6FF7606EA85152C438480828385
:101810008D680564038470BD002101804180818052
:1018200081608181C18101824182704770B5034628
:10183000002000241846183001258D40ACB21D8CC4
:10184000A5431D8409B108290AD100EB6100056890
:101850004FF68F76354005600568154305600FE04B
:101860000D1FC5F34E052844056848F6FF76354040
:10187000056005684FF6FF7606EA022635430560E7
:1018800070BD4163704781637047C16370470164F5
:1018900070470A460021018B4FF68F7319401143A0
:1018A000018370470A460021018B48F6FF731940F7
:1018B0004FF6FF7303EA02231943018370470A4678
:1018C0000021818B4FF68F7319401143818370473C
:1018D0000A460021818B48F6FF7319404FF6FF73CB
:1018E00003EA02231943818370470A460021018BD2
:1018F0004FF6F77319401143018370470A460021E0
:10190000018B4FF2FF7319404FF6FF7303EA022376
:101910001943018370470A460021818B4FF6F77304
:1019200019401143818370470A460021818B4FF291
:10193000FF7319404FF6FF7303EA022319438183B3
:1019400070470A460021018B4FF6FB731940114383
:10195000018370470A460021018B4FF6FF3319407F
:101960004FF6FF7303EA02231943018370470A46C7
:101970000021818B4FF6FB7319401143818370471F
:101980000A460021818B4FF6FF3319404FF6FF7353
:1019900003EA02231943818370470A460021018B21
:1019A0004FF67F7319401143018370470A460021A7
:1019B000018BC1F30E014FF6FF7303EA02231943B3
:1019C000018370470A460021818B4FF67F731940CF
:1019D0001143818370470A460021818BC1F30E01B8
:1019E0004FF6FF7303EA02231943818370470A46C7
:1019F0000021018C4FF6FD7319401143018470479B
:101A00000A460021018C4FF6F773194011430184F7
:101A100070470A460021018C4FF6DF7319404FF6DC
:101A2000FF7303EA02131943018470470A46002139
:101A3000018C4FF67F7319404FF6FF7303EA0213D0
:101A40001943018470470A460021018C4FF6FF5369
:101A500019404FF6FF7303EA0223194301847047CC
:101A60000A460021018C4FF2FF7319404FF6FF73B5
:101A700003EA02231943018470470A460021018CBE
:101A80004DF6FF7319404FF6FF7303EA0233194313
:101A90000184704730B5002301248C40A3B2048C2C
:101AA0009C430484048C02FA01F5ADB22C430484F7
:101AB00030BD30B5002304248C40A3B2048C9C4379
:101AC0000484048C02FA01F5ADB22C43048430BDC9
:101AD000828B4FF2FF331A408283828B4FF6FF7363
:101AE00003EA01231A4382837047F0B50C4615467A
:101AF000002100220026078C4EF6FF7C07EA0C0727
:101B00000784818B028C4FF6FF7707EA043640F694
:101B1000FF4739404FF6FF7707EA052739434FF66D
:101B2000FF7707EA0337394345F6FF773A4046F433
:101B300080573A4381830284F0BD828B4FF6F37362
:101B40001A408283828B0A4382837047F0B50C4629
:101B50001546002100220026078C4FF6FF6C07EA8D
:101B60000C070784818B028C4FF6FF7707EA042667
:101B70004FF60C7739404FF6FF7707EA03172F43EC
:101B800039434FF2FF573A4046F480773A43818316
:101B90000284F0BD028B4FF2FF331A400283028BA6
:101BA0004FF6FF7303EA01231A4302837047F0B52F
:101BB0000C461546002100220026078C4FF6EF7CCC
:101BC00007EA0C070784018B028C4FF6FF7707EAC0
:101BD000041640F6FF4739404FF6FF7707EA033710
:101BE00039434FF6FF7703E0000001400004014055
:101BF00007EA052739434FF65F773A4046F010076A
:101C00003A4301830284F0BD028B4FF6F3731A400E
:101C10000283028B0A4302837047F0B50C461546D7
:101C200000210022068C4FF6FE773E400684018B91
:101C3000028C4FF60C7631407E1C06EA03162E43CA
:101C400031434FF6F576324044F0010632430183CA
:101C50000284F0BD70B505460C46208850B9238932
:101C6000A28861882846FFF7D8FFE1882846FFF759
:101C7000CBFF25E0208804280AD12389A288618827
:101C80002846FFF794FFE1882846FFF783FF17E017
:101C9000208808280AD12389A28861882846FFF76E
:101CA00055FFE1882846FFF748FF09E02389A2880D
:101CB00061882846FFF719FFE1882846FFF708FFEB
:101CC00070BD002101804180012181800021C180FF
:101CD000018170472DE9F04105460C460026012799
:101CE000608808B9022600E00026A088012801D1FA
:101CF000022700E001272088A0B92389A2886188F3
:101D00002846FFF78AFFE1882846FFF77DFF2389F1
:101D10003A4631462846FFF74AFFE1882846FFF752
:101D200039FF13E02389A28861882846FFF73FFF27
:101D3000E1882846FFF72EFF23893A463146284698
:101D4000FFF76BFFE1882846FFF75EFFBDE8F081F3
:101D50000146486B70470146886B70470146C86B67
:101D600070470146086C70470A884B881A438B8875
:101D70001A43CB881A430B891A434B891A438B8920
:101D80001A43A0F8442070470021018041808180DF
:101D9000C180018141818181704731B1B0F8442017
:101DA00042F40042A0F8442005E0B0F84420C2F319
:101DB0000E02A0F84420704721B1828842F004024C
:101DC000828004E082884FF6FB731A40828070475D
:101DD00021B1828842F00102828004E082884FF6BD
:101DE000FE731A40828070471AB183890B43838146
:101DF00002E083898B43838170478182704702466A
:101E00000020138A0B400BB1012000E00020704736
:101E1000CA430282704730B50246002000230024E6
:101E2000158A05EA0103958905EA010413B10CB18D
:101E3000012000E0002030BDCA430282704741EA21
:101E40000203A0F8483070471AB183890B4383819D
:101E500002E083898B438381704721B1828842F0FD
:101E60000802828004E082884FF6F7731A4082806D
:101E7000704701894FF6F8721140018170470A4698
:101E8000002101894FF68F7319401143018170477A
:101E900030B504460D4629462046FFF7F0FF20895D
:101EA00040F00700208130BD2DE9F04104460D4689
:101EB00016461F46602D06D13B460122314620467C
:101EC000FFF775FE05E03B46012231462046FFF74D
:101ED000A4FE29462046FFF7D2FF208940F00700E4
:101EE0002081BDE8F08130B50C4600210189C9B2DE
:101EF0004FF6FF7505EA0325154325432943018164
:101F000030BD2DE9F04105460E461746984600249F
:101F100043463A4631462846FFF7E5FF2C894FF6FF
:101F2000F870044044F007044FF68F70044044F00A
:101F300070042C81BDE8F081F0B504460D461646CC
:101F40001F463B46324629462046FFF7CCFF2089F4
:101F500040F480402081F0BD82884FF68F731A4094
:101F6000828082880A438280704702894FF6F87324
:101F70001A40028102890A430281704702894FF6A2
:101F80007F731A40028102890A4302817047F0B5CB
:101F90000C4615461E460021002200230189028BB3
:101FA000038C4FF6F877394021434FF6FC473A400F
:101FB00040F201173A434FF6DD773B404FF6FF778B
:101FC00007EA06172F433B43018102830384F0BDD8
:101FD00021B1828842F08002828004E082884FF63C
:101FE0007F731A4082807047A0F85010704700003D
:101FF00010B50446FA48844208D101211020FFF7A9
:10200000B6F800211020FFF7B2F857E0F5488442F7
:1020100009D101214804FFF799F800214FF400305D
:10202000FFF794F84AE0F048844209D1012188047E
:10203000FFF78CF800214FF48020FFF787F83DE090
:10204000EA48844209D10121C804FFF77FF8002142
:102050004FF40020FFF77AF830E0E548844209D1D8
:1020600001210805FFF772F800214FF48010FFF7F7
:102070006DF823E0DF48844208D101212020FFF7DA
:1020800076F800212020FFF772F817E0DA48844242
:1020900009D101218807FFF759F800214FF080404E
:1020A000FFF754F80AE0D548844207D101214005E2
:1020B000FFF74CF800216005FFF748F810BD2DE947
:1020C000FF4705460E460024A14600BFA046B08942
:1020D00000B100BF2C8A24F44054F08804432C82C1
:1020E000AC8941F20C608443B0883189084371891E
:1020F00008430443AC81AC8A24F44074B08904439F
:10210000AC826846FEF7B3FEB548854202D0B948B6
:10211000854202D1DDF80C9001E0DDF80890A88935
:1021200000F4004040B109EBC90000EB0910316830
:102130004900B0FBF1F707E009EBC90000EB09101B
:1021400031688900B0FBF1F76420B7FBF0F00401BF
:102150002009642101FB1078A88900F4004040B1F7
:10216000322000EBC800B0FBF1F000F007000443A0
:1021700008E0322000EB08106421B0FBF1F000F021
:102180000F0004432C81BDE8FF874FF41651016016
:1021900000218180C18001810C2141810021818148
:1021A000704710B502460020108A20F470600B883A
:1021B0004C8823438C882343CC88234318431082C4
:1021C00010BD0021018041808180C180704721B114
:1021D000828942F40052828104E082894DF6FF73C5
:1021E0001A4082817047028B02F47F420283028B85
:1021F0000A430283704721B1828942F400428281FE
:1022000003E08289C2F30E028281704721B1828A83
:1022100042F40062828204E0828A4FF2FF731A4025
:1022200082827047C1F30802828070470146888825
:10223000C0F308007047028A4FF6F0731A4002821A
:10224000028A0A430282704721B1828942F0020267
:10225000828104E082894FF6FD731A4082817047C3
:1022600082894FF2FF731A40828182890A438281F8
:102270007047028A4FF6DF731A400282028A0A43CD
:102280000282704721B1028A42F48042028204E055
:10229000028A4BF6FF731A4002827047818941F02F
:1022A00001018181704721B1828A42F00802828255
:1022B00004E0828A4FF6F7731A4082827047028BDD
:1022C000D2B20283028B42EA01220283704721B11B
:1022D000828A42F02002828204E0828A4FF6DF7313
:1022E0001A408282704721B1828A42F010028282B3
:1022F00004E0828A4FF6EF731A4082827047828A26
:102300004FF6FB731A408282828A0A4382827047A8
:1023100021B1828A42F00202828204E0828A4FF670
:10232000FD731A40828270471AB1838A0B438382FD
:1023300002E0838A8B4383827047F0B50346002412
:1023400000260025002040F66A17B94200D100BFE0
:102350001846C1F3421401F01F06012707FA06F5DB
:10236000012C01D10C3004E0022C01D1103000E02E
:1023700014301AB107682F43076002E00768AF43C3
:102380000760F0BD02460020B1F5007F00D100BF1C
:1023900013880B400BB1012000E00020704701F4CE
:1023A0000072B2F5007F00D100BFCA4302807047BF
:1023B00070B50246002400230025002040F66A166E
:1023C000B14200D100BFC1F3421501F01F03012645
:1023D00006FA03F3012D13D19689334017E000006C
:1023E000001001400044004000480040004C004004
:1023F000005000400014014000780040007C004084
:10240000022D02D1168A334001E0968A33400C1225
:10241000012606FA04F41688344013B10CB10120E9
:1024200000E0002070BD10B50022002340F66A14C1
:10243000A14200D100BF0A1201249440A3B2DC43A0
:10244000048010BD10B504466FF00400FEF716FAC4
:10245000E11704EB5171C1F3C701394A11701046FD
:10246000007800EB4001C1EBC0104FF6FF7101EAAC
:10247000C0003449088010BD0146314A12784A43F1
:102480004FF0E0235A6100229A611A46126942F025
:1024900001021A6100BF4FF0E022106900F0010252
:1024A0001AB100F48032002AF5D04FF0E022126910
:1024B00022F001024FF0E0231A6100229A61704776
:1024C0000146204A12884A434FF0E0235A61002215
:1024D0009A611A46126942F001021A6100BF4FF078
:1024E000E022106900F001021AB100F48032002AE3
:1024F000F5D04FF0E022126922F001024FF0E02304
:102500001A6100229A61704770B504464FF4077053
:1025100094FBF0F0C6B24FF4077094FBF0F100FBAF
:10252000114085B205E04FF40770FFF7C9FF701E38
:10253000C6B2002EF7D115B12846FFF7C1FF70BD16
:10254000280000202A000020014600BF704700BF7D
:102550004C4A128802F04002002AF9D0C2B2494B1C
:102560009A80704710B588B0044601210846FEF7EE
:102570004FFD01211020FEF7A5FD07220921424849
:10258000FEF733FB07220A213F48FEF72EFB4FF4EC
:10259000C060069002208DF81C008DF81D00002000
:1025A0008DF81E0001208DF81F0006A93648FEF7A1
:1025B00091FA02940020ADF80C00ADF80E00ADF8D1
:1025C0001000ADF814000C20ADF8120002A92D483F
:1025D000FFF775FD01212B48FFF7F9FD012240F2BD
:1025E00025512848FFF7A9FE25208DF80400032077
:1025F0008DF805008DF8060001208DF8070001A870
:10260000FEF7EFF808B010BD10B540F225511D4897
:10261000FFF7CEFE10B31B48FFF708FEC4B21B48FD
:10262000008800F40040C8B91848008800F48040D1
:1026300060B10A2C03D000201449088020E0134820
:10264000008840F400401149088019E00D2C06D1A3
:102650000E48008840F480400C49088010E00B4888
:102660000088C0F30D000A490C5408480088401C3B
:102670000649088008460088C72801DD0020088038
:1026800010BD00000010014000000240300000209A
:10269000780000201CB501211120FEF7B9FC1C2098
:1026A000009000208DF8040003208DF80500012023
:1026B0008DF8070069463548FEF70CFA01200090B6
:1026C00002208DF8070069463148FEF703FA1CBD69
:1026D00010B5044614B101202E4908702D48007829
:1026E000002837D010212948FEF756FA78B1082182
:1026F0002648FEF751FA50B104212448FEF74CFA5F
:1027000028B101212248FEF747FA012822D10A20E8
:10271000FFF7FAFE00201F49087010211B48FEF742
:102720003BFA08B9012010BD08211848FEF734FA19
:1027300008B90220F7E704211448FEF72DFA08B97A
:102740000320F0E701211248FEF726FA01281BD1E9
:102750000420E8E710210D48FEF71EFA012813D1E6
:1027600008210A48FEF718FA01280DD1042107486C
:10277000FEF712FA012807D101210548FEF70CFAED
:1027800010B90120034908700020CCE70010024076
:1027900000000240320000201CB501212020FEF77D
:1027A00037FC4FF4C060009001208DF80400002039
:1027B0008DF8060003208DF8050001208DF8070034
:1027C00069460448FEF786F94FF4C0610148FEF7F8
:1027D000FDF91CBD0014024070B5064600253221EB
:1027E000DA4800F060FEDAA1304600F02BFE044625
:1027F0000C3405E02078D5494855681CC5B2641CE6
:1028000020780A28F6D1D14870BD70B50546D4A10C
:10281000284600F017FE04462146D3A000F0C6FC6F
:10282000601D70BD70B504460025DA48008800F4CC
:10283000004078B10020D7490988C1F30E01D64A7B
:1028400050542146104600F0FDFD0546D249D3A064
:1028500000F0ACFC284670BD2DE9F04104460E4660
:10286000154600270020CB490880FF2C0AD800BF5E
:10287000CC48008800F040000028F9D0C949091D63
:102880000C8003E02146C8A000F042FBC6B1BDB1F8
:102890000FE00A20FFF738FEBE48008800F4004031
:1028A00038B13046FFF7BEFF00B106E00020B9495D
:1028B0000880681E80B20500EBD100BF05B9012772
:1028C0003846BDE8F08170B504460025B848008858
:1028D00000F4004078B10020B5490988C1F30E0129
:1028E000B44A50542146104600F0ACFD0546B149AB
:1028F000ADA000F05BFC284670BD2DE9F041044618
:102900000E46154600270020A9490880FF2C0AD84A
:1029100000BFA948008800F040000028F9D0A6496F
:10292000091D0C8007E021469FA000F0B4FB214662
:102930009DA000F03BFCC6B1BDB10FE09C480088F3
:1029400000F4004038B13046FFF7BDFF00B109E0A8
:102950000020974908800A20FFF7D6FD681E80B244
:102960000500EBD100BF05B901273846BDE8F0816D
:1029700010B500244FF47A7290A191A0FFF7BDFF2B
:1029800008B144F001044FF47A728CA18FA0FFF7D4
:10299000B4FF08B144F002044FF47A728EA190A003
:1029A000FFF7ABFF08B144F00404642283A18EA0BA
:1029B000FFF7A3FF642281A18EA0FFF79EFF4FF4D3
:1029C0007A727EA18FA0FFF798FF08B144F0080447
:1029D0004FF47A7279A18EA0FFF78FFF08B144F00F
:1029E000100440F2DC5275A18EA0FFF786FF08B1FB
:1029F00044F020044FF47A7270A18E48FFF77DFFF7
:102A000008B144F04004204610BD30B58DB00446F6
:102A1000204600F029FDC5B22A4687A1684600F08D
:102A2000D1FB40F2DC5289A16846FFF766FF10B186
:102A300001200DB030BD4FF4FA7260A12046FFF7BF
:102A40005CFF08B10220F4E740F2DC5282A183A0CF
:102A5000FFF753FF08B10320EBE740F2DC5257A128
:102A600082A0FFF74AFF08B10420E2E70020E0E778
:102A70002DE9F041064680A5052700240EE0804898
:102A800050F82410304600F0DDFC28B17D4850F8A5
:102A900024507D48047003E0601CC4B2BC42EEDBED
:102AA00000BF294679A000F081FB2846BDE8F081EF
:102AB00070B505460E467CA1284600F0C3FC00B167
:102AC0007BA54FF47A7231462846FFF7C5FE10B950
:102AD000314C204670BD79A133A000F067FB66A0A1
:102AE000F8E702467C48684B1B7850F82300704793
:102AF0002DE9F04105460C465FA62846FFF7B8FFD2
:102B000007465DA1384600F09DFCD8B973A126A008
:102B100000F04CFB2CB139462846FFF7E2FF064691
:102B200010E0012240F225511E48FFF706FC39460D
:102B30002846FFF7BDFF0646002240F225511948FE
:102B4000FFF7FBFB3046BDE8F081000040010020AC
:102B50006765745F636F6D6D616E643A00000000BD
:102B6000686176653A0000007468652070686F6E71
:102B700065277320726571756573742069733A25D2
:102B8000732D2D2D2D2D2D2D2D2D2D2D2D2D2D0D4F
:102B90000A00000074000020080300202573200DA7
:102BA0000A0000000044004025730D0A00000000E8
:102BB0007600002028060020004800404F4B00000F
:102BC00041542B4350494E3F0000000041542B43D9
:102BD0004F50533F000000002B4353513A00000078
:102BE00041542B435351000041542B4854545054EA
:102BF00045524D0041542B53415042523D302C31EF
:102C00000000000041542B48545450494E49540090
:102C100041542B48545450504152413D2243494461
:102C2000222C310041542B53415042523D312C3122
:102C300000000000B049000841542B48545450444F
:102C40004154413D25642C3230303000444F574EC2
:102C50004C4F4144000000003230300041542B48BA
:102C6000545450414354494F4E3D310041542B4838
:102C700054545052454144006E756C6C0000000085
:102C8000380000204C0000203400002074686520CB
:102C90006261636B205F646174612069733A20250F
:102CA00073200D0A0000000044524F4E0000000047
:102CB00041542044524F4E320000000062616420B3
:102CC0006F6264206261636B20646174612E2E2EDA
:102CD0002E2E2E2E2E2E00006000002077616974AB
:102CE00020746F206F6264206261636B2064617482
:102CF000612E2E2E2E2E2E2E2E2E000010B50121EE
:102D00003B48FFF788F868B13A48008840F4004033
:102D10003849088001213648FFF78EF800213448F1
:102D2000FEF74AFC10BD10B501213348FFF773F8D8
:102D300068B13248008840F40040304908800121E1
:102D40002D48FFF779F800212B48FEF735FC10BD20
:102D50007FB505460C4601212020FEF7A2F901951A
:102D6000ADF800400020ADF80800ADF8020069465B
:102D70001F48FEF798FB012211461D48FFF734F863
:102D800037208DF80C0000208DF80D0001208DF803
:102D90000E008DF80F0003A8FDF723FD7FBD7FB562
:102DA00005460C4601211020FEF77BF90195ADF890
:102DB00000400020ADF80800ADF8020069460E485A
:102DC000FEF771FB012211460B48FFF70DF8362084
:102DD0008DF80C0000208DF80D0002208DF80E00FB
:102DE00001208DF80F0003A8FDF7FBFC7FBD00005C
:102DF0000014004076000020001000407400002005
:102E000010B540F225515448FFF7D2FA00B35248AA
:102E1000FFF70CFAC4B25148008800F40040B8B97A
:102E20004E480088B0F5C87F13DA00214C48FEF701
:102E300083FB4A48008818B901214948FEF7BCFBCA
:102E4000464801880088401C444A10804548445444
:102E500005E04248008840F400404049088010BD29
:102E600010B588B0044601210220FEF7D1F80121F7
:102E70004804FEF716F93848FFF7BAF8072202218E
:102E80003948FDF7B2FE072203213748FDF7ADFEB2
:102E90000C20059002208DF818008DF819000020F4
:102EA0008DF81A0001208DF81B0005A92E48FDF7AA
:102EB00011FE01940020ADF80800ADF80A00ADF84D
:102EC0000C00ADF810000C20ADF80E0001A922484E
:102ED000FFF7F5F801212048FFF779F926208DF852
:102EE0001C0002208DF81D008DF81E0001208DF8B9
:102EF0001F0007A8FDF775FC42F2CF0140F2E73052
:102F0000FFF74DFF00211648FEF756FB08B010BD35
:102F10000FB438B505A800901448009A049900F041
:102F200033F900200090114800F09EFA85B2002489
:102F30000DE000BF40210848FFF724FA0028F9D02F
:102F40000A48015D0448FFF76DF9601C84B2AC4289
:102F5000EFDB38BC5DF814FB004400407400002037
:102F6000001000400803002000000240780100200B
:102F700010B540F225515A48FFF71AFA00B35848E5
:102F8000FFF754F9C4B25748008800F40040B8B9BC
:102F900054480088B0F5C87F13DA00215248FEF784
:102FA000CBFA5048008818B901214F48FEF704FBBE
:102FB0004C4801880088401C4A4A10804B484454C1
:102FC00005E04848008840F400404649088010BDAC
:102FD00010B588B0044601210220FEF719F801213E
:102FE0008804FEF75EF83E48FFF702F807220B213F
:102FF0003F48FDF7FAFD07220A213D48FDF7F5FDA0
:103000004FF44060059002208DF818008DF81900EB
:1030100000208DF81A0001208DF81B0005A9344806
:10302000FDF758FD01940020ADF80800ADF80A0046
:10303000ADF80C00ADF810000C20ADF80E0001A9A1
:103040002748FFF73CF801212548FFF7C0F8272063
:103050008DF81C0002208DF81D0003208DF81E0045
:1030600001208DF81F0007A8FDF7BBFB42F2CF013E
:1030700040F2E730FFF76CFE00201A49088000217B
:103080001948FEF799FA012240F225511448FFF73A
:1030900054F908B010BD0FB438B505A80090154814
:1030A000009A049900F070F800200090114800F098
:1030B000DBF985B200240DE000BF40210848FFF78E
:1030C00061F90028F9D00B48015D0548FFF7AAF81F
:1030D000601C84B2AC42EFDB38BC5DF814FB00002E
:1030E0000048004076000020001400402806002020
:1030F000000402409804002010B50A20FFF704FAEB
:1031000001211E48FDF748FD01280AD11C4800781E
:10311000012803D100201A49087002E00120184953
:1031200008700120FDF747FC10BD0EB5FFF7B2FA9D
:1031300001218803FDF7C6FF00210846FEF7CDF800
:103140000120009000208DF8040008208DF8050073
:1031500001208DF806006846FDF7BCFB06208DF8BF
:10316000080000208DF8090001208DF80A008DF874
:103170000B0002A8FDF735FB0EBD00000000024069
:1031800000000020704700001CB50C46064B7B4435
:1031900069460090204600F058FA0446002069462F
:1031A00000F066FA20461CBDDF0400000FB404499D
:1031B00010B503AA029800F077FA10BC5DF814FB72
:1031C0002C0000200FB41CB5084B06AA7B446946AE
:1031D0000090059800F039FA04460020694600F096
:1031E00047FA20461CBC5DF814FB0000A104000057
:1031F00070B50C460546012A05D02878800600D512
:10320000EA69002302E0012305E05B1C934202D23D
:10321000E05C0028F9D1A869E618C01AA861286AFC
:1032200018442862284600F064F904E0D5E9012139
:1032300014F8010B9047B442F8D3284600F06FF918
:1032400070BD00002DE9F041064600241068752984
:10325000314616A510D000F073F9002802DA40427A
:1032600013A507E031688A0701D512A502E04907D6
:1032700004D511A5012401E000F06BF900210A2218
:1032800006F1240709E0B0FBF2FCB0FBF2F302FB0D
:103290001C00303078541846491C0028F3D12346CE
:1032A0002A463046BDE8F04100F05CB9000000005D
:1032B0002D0000002B000000200000002DE9F05F31
:1032C000894604464FF0000ADFF874B1FB44C0F8A9
:1032D00020A02046E1688847002874D0252806D021
:1032E000D4E901219047206A401C2062F1E70026C2
:1032F0005F462046E16888472028054607DB312DD8
:1033000005D2781910F8200C08B10643F1E7B00790
:1033100001D526F00406C4F81CA00027C4F818A0A4
:103320002A2D09D0284601F09EFA38B304EB87080D
:10333000303DC8F8185019E059F8041B204604EB3A
:1033400087029161E1688847012F054618D1E0693D
:10335000002820DA26F020061DE0D8F8180000EB3F
:10336000800005EB40003038C8F818002046E168BE
:103370008847054601F077FA0028EED1012F0AD0E0
:103380002E2D08D12046E16888477F1C0546022F74
:1033900046F02006C4DBA069002803DA404246F06C
:1033A0000106A061F00701D026F010066C2D0BD0AD
:1033B000682D09D04C2D39D06A2D35D0742D35D0DB
:1033C0007A2D33D016E038E0E1682F462046884752
:1033D000B842054609D16C2F26D04FF48060E168D1
:1033E000064320468847054604E06C2F1AD04FF468
:1033F000807006430DB3A5F14100192802D820358D
:1034000046F400664A462946204626604E46FCF7AA
:10341000F5FE80B101280BD0F61D26F0070000F163
:10342000080956E74020E4E78020D8E70020D6E7E7
:1034300006F104094DE7284652E7206ABDE8F09FEF
:103440000A16000030B505460B462A4613F8014B14
:1034500012F8010B08B1A042F8D01CB1002802D02C
:103460006D1CF1E7284630BD10B5431C02E010F892
:10347000011B71B18107FAD14FF0013202C88C1AD9
:103480008C4314EAC211F9D0C01A0A0603D0C01E38
:1034900010BDC01A10BD0A0401D0801E10BD090263
:1034A000FCD0401E10BD4FF000020429C0F0128075
:1034B00010F0030C00F02A82CCF1040CBCF1020FD6
:1034C00018BF00F8012BA8BF20F8022BA1EB0C01BC
:1034D00000F01CBA5FEAC17C24BF00F8012B00F8A1
:1034E000012B48BF00F8012B7047704770477047A9
:1034F000704770B5044685690068C10601D530265D
:1035000000E02026C00707D070BDD4E90121304675
:103510009047206A401C20626D1EF6D570BD70B5C4
:10352000044685690078C00707D170BDD4E9012140
:1035300020209047206A401C20626D1EF6D570BD89
:1035400009684A0501D540B27047C905FCD500B2EB
:10355000704709684A0501D5C0B27047C905FCD556
:1035600080B270472DE9F0470D46994692460446D1
:1035700000F124080168880604D5E06921F01001F3
:10358000216000E00120A84201DD471B00E0002788
:10359000A1697A1902EB0900081AA0612078C00617
:1035A00002D42046FFF7A5FF002608E0D4E9012158
:1035B0001AF806009047206A401C761C20624E458F
:1035C000F4DB2078C0060AD52046FFF792FF06E01C
:1035D000D4E9012130209047206A401C2062381E27
:1035E000A7F10107F4DC07E0D4E9012118F8050090
:1035F0009047206A401C2062281EA5F10105F3DCDB
:103600002046FFF78CFF2078000602D50220BDE897
:10361000F0870120FBE711680268006A530501D5B5
:1036200008700AE0D30501D5088006E0130603D52B
:10363000C217C1E9000200E00860012070470000E5
:1036400001694A1C02610878704700B58FB0CDE966
:1036500001310021059105497944CDE90310114656
:103660006846FFF72BFE0FB000BD0000E5FFFFFF2F
:103670000A6802F8010B0A60704710B5436913B17C
:10368000AFF3008001E0FFF7B3FD012010BD127819
:1036900000F124010A7000224A700122EDE711684E
:1036A0004FF0FF32E9E70000074B70B50D467B4451
:1036B000FFF7CBFF0446284600F0B5FB10B14FF0F2
:1036C000FF3070BD204670BD9DEEFFFF2DE9FF5F0E
:1036D00015468A460446DFF8AC80F8440027D8E94E
:1036E00000103E46CDE9001010E03AF816106A4688
:1036F00002A800F09CFB411C07D02178890603D565
:10370000E269391891420DD80744761C207880066A
:1037100002D5E069B84205DDAE42E6DB3AF81600B4
:103720000028E2D1A069C01BA0612046FFF7E1FE9E
:10373000D8E90010CDE90010002017E03AF8181081
:103740006A4602A800F073FBB0F1FF3F81460BD040
:1037500000250DF1080B05E0D4E901211BF8050057
:1037600090476D1C4D45F7D308F10100B0428046EB
:10377000E4DB206A384420622046FFF7D0FEBDE833
:10378000FF9F00000E1200002DE9F0418046D21D7F
:1037900022F007020025D2E90002F52915A614D06F
:1037A000011E72F1000106DA0023D0EB030063EB87
:1037B000020211A608E0D8F800108B0701D50FA669
:1037C00002E0490701D50EA601251146002408F1A3
:1037D000240704E000F0BFF830323A55641C50EA88
:1037E0000102F7D12B46324621464046BDE8F04162
:1037F000FFF7B8BE000000002D0000002B00000005
:103800002000000030B4002100F1240408E002F0A0
:103810000705D208303542EA4372DB086554491C7B
:1038200052EA0305F3D10468002310A2250708D546
:1038300004F020040C4304D0C46901230CA2641ECC
:10384000C46130BCFFF78EBE10B504462146106837
:10385000FFF77FFE02462046BDE810400023D1E777
:10386000D21D22F00701D1E90023CBE700000000C0
:1038700030000000F0B40D460188090502D5214C46
:103880007C4402E01F4C7C440E34002100F12406ED
:1038900008E002F00F071209E75D42EA03721B0914
:1038A0007754491C52EA0307F3D102780023120728
:1038B00004D5702D06D009B1022311342246F0BC84
:1038C000FFF750BE01231034F8E770B504460D46EB
:1038D00021461068FFF73DFE024629462046BDE816
:1038E00070400023C6E7D21D22F00703D3E900236E
:1038F000C0E70368126843F0200303600823C36134
:103900000023B7E7701000004FF0000200B5134627
:1039100094469646203922BFA0E80C50A0E80C50EF
:10392000B1F12001BFF4F7AF090728BFA0E80C50A0
:1039300048BF0CC05DF804EB890028BF40F8042B99
:1039400008BF704748BF20F8022B11F0804F18BF06
:1039500000F8012B704730B5B0F10A024FEA900E23
:1039600071F100034EEA817EB0EB0E0061EB910134
:103970004FEA101E4EEA017E10EB0E0041EB1111D2
:103980004FEA102E4EEA016E10EB0E0041EB1121B2
:103990004FEA104E4EEA014E10EB0E0041EB114182
:1039A000401841F100014FEAD00040EA41704FEA6F
:1039B000D10110EB80054FEA810444EA907444EB96
:1039C00001046D1944EB0404521BA3414FF00003A2
:1039D00048BF0A3200D530BD401C41F1000130BD66
:1039E00070472DE9FF4F0C461E464FF0FF378BB056
:1039F000D2E90001DDF860800A908A46C1F30A55D9
:103A000005B93D46002108464FF00000BAF1000F0D
:103A100000F4400005DA00EB80004FF4400101EAB9
:103A200050004FEA9059B9F1010F00DDB9460A98EC
:103A300050EA4A000ED044F61050A5F2FF35454337
:103A40002F14B8F1000F1ED07542291E1EDDC9F1DA
:103A500000021CE0B8F1010F4FF0000001D030214E
:103A600003E0F24305E02154401CB042FBDB30464A
:103A70000022002121540B99C1F80880C1E90020DF
:103A80000FB0BDE8F08FBD1B6D1CDEE74A4600DAC3
:103A9000694206A800F05CFA06AB93E8070003ABA6
:103AA00083E8070050460A9900F00AFB8DE80700FA
:103AB000A0F500501F3800900398002D09DD42F258
:103AC0001F014A46084403A90390684600F069FDB7
:103AD00008E0A0F500504A461F3803A90390684645
:103AE00000F073FD8DE807000004000C03D04FF0D8
:103AF000FF30410800E01046B8F1000F03D000226B
:103B0000009215461EE0751E05D4FFF724FF3032E3
:103B100062556D1EF9D5B3460122084302D000223A
:103B20007F1C04E02078302801D100227F1E002A6B
:103B3000099786D01DE0112D07DAFFF70CFF303210
:103B400062556D1C50EA0102F5D1084302D000987D
:103B5000C8B10EE00021681E05E0235C625C63547E
:103B60002254401E491C8142F7DBAB46A81B401E75
:103B70000990002004F80B000B98099AC0F80880FF
:103B8000C0E9002B7CE711264FF0000859E72DE92A
:103B9000F04F88460446D21D22F0070191B0D1E9CA
:103BA0000001CDE90A0100F046FE02460B98C00F65
:103BB00001D02D2007E02068810701D52B2002E0ED
:103BC000202101EAC000032A099001D0072A05DB61
:103BD00003464146204600F07BF90BE12078800641
:103BE00001D5E06900E00620B8F1650F814606D0F6
:103BF000B8F1660F18D0B8F1670F70D131E000202E
:103C0000B9F1110F009001DB112301E009F101036B
:103C10000AAA01A90CA8FFF7E4FEDDE90C70002652
:103C200009F10105834647E001204B4600904FF023
:103C300000470AAA01A90CA8FFF7D3FEDDE90DB0E1
:103C40000C995D46002610B909F101000D18B9EB79
:103C5000050003D4C0F1FF3609F10105A5EB090009
:103C60002BE0B9F1010F01DA4FF001090020B9F1A1
:103C7000110F0090484601DD112300E003460AAA17
:103C800001A90CA8FFF7ADFEDDE90C704D4600263A
:103C90008346207800070AD4AB4500DA5D4601A8C8
:103CA000012D04DD411911F8011C302907D04F45C1
:103CB00002DA17F1040F04DA012082460FE06D1ECC
:103CC000EEE7002F02DCED1B3E4403E0781CA84227
:103CD00000DD7D1CB81B00F1010A4FF00047207881
:103CE000000703D4AA4501DB4FF0FF3A0021B7F1EA
:103CF000004F0DF143088DF8431024D002202B23F0
:103D0000002F01DA7F422D230A21021EA0F10100BB
:103D100000DC5FB197FBF1FC97FBF1F201FB1C7C2F
:103D200017460CF1300C08F801CDEEE7A8F10100C0
:103D300003702188090501D5452100E06521A0F126
:103D4000010800F8011C09980FA9A1EB0807FF1D45
:103D500000B10120411901EBEA70A1693844081A49
:103D6000401EA0612078C00602D42046FFF7C1FBA8
:103D7000099828B1D4E901219047206A401C2062AB
:103D80002078C00622D52046FFF7B3FB1EE0002EA8
:103D900004DBB34502DD01A8805D00E03020D4E9FA
:103DA00001219047206A401C2062761CAAF1010084
:103DB0005FEA000A0AD100F087F8C0680168405C39
:103DC000D4E901219047206A401C2062281EA5F1F9
:103DD0000105DCDC07E0D4E9012118F8010B90476C
:103DE000206A401C2062381EA7F10107F3DC204640
:103DF000FFF795FB032011B043E610B5436913B1FB
:103E0000AFF3008001E0FFF761FC012010BD1288D4
:103E100000F1240182840022C2840122EDE71168AE
:103E20004FF0FF32E9E7007B00F08000704770B58B
:103E300016460C46054600F03FF8036893F801016A
:103E4000012806D0FF2C0FD8185D68B101202C7016
:103E500070BDD3F807013246214603F2071303442D
:103E60002846BDE8704018474FF0FF3070BD7546DA
:103E700000F0E2F8AE4605006946534620F0070020
:103E8000854618B020B5FCF795FCBDE820404FF002
:103E900000064FF000074FF000084FF0000B21F034
:103EA0000701AC46ACE8C009ACE8C009ACE8C00901
:103EB000ACE8C0098D46704710B500F005F8001D4C
:103EC00010BD00BFDD09000000487047D807002082
:103ED0002DE9F0411F46044603260168072A01F434
:103EE000006004DB08B116A505E016A503E008B1E3
:103EF00015A500E015A521F010002060A069C01EE6
:103F0000A0610FB1401EA0612046FFF7F2FA4FB149
:103F1000D4E9012138469047206A401C2062C01C29
:103F2000206206E0206AFAE7D4E9012115F8010BC6
:103F30009047761EF8D22046FFF7F1FABDE8F081EF
:103F40004E414E006E616E00494E4600696E66003D
:103F50002DE9F047814616468AB0334878440DC8AB
:103F60008DE80D0030487844801C03AC0DC884E80F
:103F70000D0041F69B300844372190FBF1F290FB95
:103F8000F1F5A5F1800501FB12041B3C02D564424A
:103F9000012000E00020DFF890A080460027FA44CE
:103FA000AAF1BE0A0DE0E00709D03246684607EBE9
:103FB00047010AEB810100F008FB8DE8070064105F
:103FC0007F1C002CEFD1184F7F44AC3F18E0E8076E
:103FD00014D007EB04100DF1180A90E80E008AE8DF
:103FE0000E00C068F04201D198190890324606A927
:103FF00003A800F0EAFA03AB83E807006D10641C25
:10400000002DE4D132466946B8F1000F03A802D072
:1040100000F0C7FA01E000F0D8FAC9E90001C9F8D8
:1040200008200AB0BDE8F087380A00000446AFF364
:1040300000802046FCF747F900487047B807002089
:104040004FF0013C50F8042B51F8043B9A4221D127
:10405000A2EB0C03934313EACC1317D150F8042BB3
:1040600051F8043B9A4215D1A2EB0C03934313EA97
:10407000CC130BD150F8042B51F8043B9A4209D1D0
:10408000A2EB0C03934313EACC13DBD04FF00000F8
:10409000704700BFD01A01BAB1FA81F101F01801DE
:1040A00022FA01F0CB40C1F12001DBB2C0B2C01A4C
:1040B0002CFA01F3D11A914311EAC311E6D17047EA
:1040C0005FEA400C08BF91F0000F4FEA8C234FEAE3
:1040D000C12243EA51514FEA1C5018BF00F5F0408D
:1040E0004FEA300018BF41F000415FEA6C5C00F01D
:1040F0002980BCF1FF3F08BF40F080407047130C9F
:1041000006BF12044FF0100C4FF0000C130E04BF4A
:1041100012020CF1080C130F04BF12010CF1040C75
:10412000930F04BF92000CF1020CD30F04BF520096
:104130000CF1010C11464FF00002A0F11F00A0EBA2
:104140000C00704711F0004F08BF704731F000417C
:104150003FF4D5AF0B0C06BF09044FF0100C4FF025
:10416000000C0B0E04BF09020CF1080C0B0F04BF6E
:1041700009010CF1040C8B0F04BF89000CF1020C37
:10418000CB0F04BF49000CF1010CCCF12003A0EBD4
:104190000C0022FA03F302FA0CF241EA030100F1E7
:1041A0000100704720F07F4C80EA030023F07F4736
:1041B000ACEB070303F57C5300F0004003F1FF0371
:1041C0002DE980494FEA154B09B44FEA144325EA1B
:1041D0000B4E24EA03480FF2042606EB1327490886
:1041E0003E785FEA320203FB0667C7F5000707FB6C
:1041F00006F64FEA54374FEAD64606F1020607FBA9
:10420000066CCCF1005C4FEA1C472CEA074C07FB1C
:1042100006F40CFB06F504EB15464FEA961634BF80
:1042200000204FF000404FEAD13706FB07FC4FEA71
:104230001C4C0CFB0BF7D21B03FB0CF761EB0701CB
:104240000CFB0EF7B0EB074072EB17420CFB08F7C4
:1042500034BFA2EB0742B2EB074261EB17414FEAD2
:104260000C444FEA910706FB07FC4FEA1C4C0CFB81
:104270000BF7B0EBC74072EB573203FB0CF734BFC0
:10428000A2EBC742B2EBC74261EB57310CFB0EF712
:10429000B0EBC70072EB57720CFB08F734BFA2EB10
:1042A000C702B2EBC70261EB5771039F4FEA81610E
:1042B00041EA921104EBCC044FEAD1374FEA826213
:1042C00006FB07FC42EA90124FEA80604FEA1C4C62
:1042D0000CFB0BF7D21B03FB0CF761EB07010CFB8C
:1042E0000EF7B0EB074072EB17420CFB08F734BF38
:1042F000A2EB0742B2EB074261EB17414FEA8C5544
:104300004FEA910704EB9C2406FB07FC4FEA1C4C88
:104310000CFB0BF7B0EBC74072EB573203FB0CF70B
:1043200034BFA2EBC742B2EBC74261EB57310CFB83
:104330000EF7B0EBC70072EB57720CFB08F734BFF7
:10434000A2EBC702B2EBC70261EB577115EB4C252C
:104350004FEA816141EA92114FEA82624FEAD13716
:1043600042EA901206FB07FC44F100044FEA806029
:104370004FEA1C4C0CFB0BF7D21B03FB0CF761EB59
:1043800007010CFB0EF7B0EB074072EB17420CFB7A
:1043900008F734BFA2EB0742B2EB074261EB1741CB
:1043A00015EB1C154FEA813141EA92414FEA823206
:1043B00042EA90424FEA80304FEA0C7644F1000422
:1043C00048EA03434EEA0B484FF0000EB2EB080CEC
:1043D00071EB030724BF624639464EEB0E0E4FF0D9
:1043E000000B0018524149414BEB0B0BB2EB080C90
:1043F00071EB03077BF1000B24BF624639464EEB9D
:104400000E0E4FF0000B0018524149414BEB0B0BC5
:10441000B2EB080C71EB03077BF1000B24BF624683
:1044200039464EEB0E0E51EA020718BF46F0010660
:1044300016EB0E7655F1000254F1000103D5BDE8EC
:104440008901BDE80088BDE88901BDE80048B619CA
:10445000524141EB0101A3F10103704780807F7E4F
:104460007D7C7B7A797877767675747372717170EA
:104470006F6E6E6D6C6C6B6A6A696868676666659C
:104480006464636362616160605F5F5E5E5D5D5C2A
:104490005C5B5B5A5A59595858575756565555559B
:1044A0005454535352525251515050504F4F4F4EFB
:1044B0004E4D4D4D4C4C4C4B4B4B4A4A4A49494949
:1044C000484848474747474646464545454444448B
:1044D000444343434342424242414141002B26D49C
:1044E000770021D01CB54FEA370703B44FF0100016
:1044F0004FF010014FF000000FBCBDE810400BF171
:10450000010BBBF1010F08BF5FEA170722BF12F1D1
:10451000010211F101014FF0004143F1000300F0ED
:10452000004043EA00007047F9D35708DAE746EA4B
:10453000064613F1400F4FEA16461FDD13F1200F18
:10454000DFBF16430A46002120335B42C8D0C3F1C7
:10455000200746EA064602FA07F74FEA164646EAF9
:104560000706C3F1200722FA03F201FA07F721FA3E
:1045700003F14FF0000342EA0702B1E746EA020600
:1045800046EA06464FEA164646EA0106BCBF46EA38
:104590000646360C4FF000034FF000024FF00001CA
:1045A0009EE72DE9C048934630B491E8380007C82B
:1045B00031EA400C48BF34EA430C03D5FFF7F2FD63
:1045C000FFF78CFFF0BCBDE800882DE9C04893469A
:1045D00030B491E8380007C810F0804F08BF13F0DE
:1045E000804F03D100F005F8FFF778FFF0BCBDE87D
:1045F000008820F07F4780EA030023F07F4C07EB20
:104600000C03A3F57C5300F00040A3F1FE0392F0ED
:10461000000F00F0B38095F0000F00F077802DE9D7
:1046200001494FEA11404FEA144621EA004800FBD5
:1046300006FC24EA064708FB06F607FB08F800FB21
:1046400007F718EB06484CEB164C4FEA124B18EBE9
:1046500007484FEA15464CEB174022EA0B4E0BFB7E
:1046600006FC25EA06470EFB06F607FB0EFE0BFBD3
:1046700007F71EEB064E4CEB164C4FF000061EEBF8
:10468000074E4CEB174B18EB0B0840F1000018EBF2
:104690000E0B58EB000840F100008F1A4FF000019C
:1046A0003CBFC943661B14BFB5EB040C00213CBFE3
:1046B000C943F61B4FEA17444EEA8E0E27EA04451B
:1046C0004FEA1C4704FB07622CEA074C05FB07F77F
:1046D0000CFB05F604FB0CFC16EB074642EB1742FD
:1046E00016EB0C4642EB1C421BEB060658EB020293
:1046F000414146EA9E0601D5BDE80189B6195241FD
:1047000041EB0101A3F10103BDE801894FEA144522
:104710004FEA114724EA054621EA074C05FB07F456
:1047200006FB07F70CFB06F105FB0CFC11EB074140
:1047300044EB17444FEA124711EB0C4144EB1C4485
:1047400022EA074C05FB07F206FB07F70CFB06F60F
:1047500005FB0CFC16EB074642EB174216EB0C462A
:1047600042EB1C456A1854F1000148BF7047B61966
:10477000524141EB0101A3F10103704795F0000F95
:1047800037D04FEA11424FEA144721EA024624EAA1
:10479000074C02FB07F106FB07F70CFB06F402FBD4
:1047A0000CFC14EB074441EB17414FEA154714EB9F
:1047B0000C4441EB1C4125EA074C02FB07F506FBC4
:1047C00007F70CFB06F602FB0CFC16EB074645EB65
:1047D000174516EB0C4645EB1C42121951F100012E
:1047E00048BF7047B619524141EB0101A3F10103E3
:1047F00070474FEA14454FEA114724EA054621EA7B
:10480000074C05FB07F106FB07F70CFB06F24FF020
:10481000000605FB0CFC12EB074241EB174112EBC3
:104820000C4251EB1C4148BF7047921841EB01010B
:10483000A3F10103704703B401984100009850EAC6
:10484000C12018BF04204A0D18BF40F0010040F2FB
:10485000FF72B2EB515F08BF40F00200012808BFB1
:10486000052002B0704730380A2801D20120704775
:104870000020704710B500290AD00878002807D01A
:1048800005487844FFF7DCFB002801D0002010BD6C
:104890000248784410BD0000420300003A030000C3
:1048A00010B500290AD00878002807D005487844B8
:1048B000FFF7C6FB002801D0002010BD0248784455
:1048C00010BD0000320300002A0300004FF04070CA
:1048D000E1EE100A7047FFF75AB904000008000023
:1048E00000000000000200010000100000000000B5
:1048F0000000000030313233343536373839414228
:104900004344454640305800303132333435363731
:1049100038396162636465664030780002400000A7
:10492000000000A00000000005400000000000C8DA
:10493000000000000C4000000000409C000000004F
:10494000194000000020BCBE000000003440000000
:10495000BFC91B8E00000004B5400000504BCFD0F3
:104960006607E2CF010000006C4100003E8251AAC0
:10497000DFEEA73401000000D9420000DCB5A0E260
:104980003A301F97FFFFFFFFB4450000FD25A0C888
:10499000E9A3C14FFFFFFFFFFF3F000000000080C1
:1049A00000000000FF3F0000000000800000000049
:1049B00041542B48545450504152413D2255524C81
:1049C000222C22687474703A2F2F3132302E3737F0
:1049D0002E33382E31393A383038302F4361724413
:1049E0006961676E6F73655365727665722F436197
:1049F000725365727665722200000000244F4244B3
:104A00002D44522400000000244F42442D424153C3
:104A1000452044522044415424000000244F424485
:104A20002D46524545455A2044415424000000007B
:104A30003E244F42442D4452244D415852504D3A49
:104A4000343934353B4D494E52504D3A3439333771
:104A50003B4D41585350443A32343B4156475350F2
:104A6000443A32343B4D415841434C3A302E303B6E
:104A70004D494C452D543A302E303B4655454C2D32
:104A8000543A302E3033373B4D494C45533A302E53
:104A9000303B4655454C533A302E3033373B544922
:104AA0004D45533A302E303B5354415254533A30D3
:104AB0003B4252414B45533A303B5241434C533AAF
:104AC000303B504F5745523A310000005244544356
:104AD0003A322C26503030323326503031323600C4
:104AE000244F42442D4241534520445220444154D6
:104AF00024564241543A31312E323B52504D3A34D1
:104B00003933373B5350443A32343B54503A362EC3
:104B1000363B4C4F443A31342E313B4543543A2DC9
:104B200032333B464C493A362E363B4D50483A20BC
:104B3000312E3338383B392E313900004544544347
:104B40003A312C265032303239000000434C454176
:104B50005220445443000000415420445443000078
:104B6000415420414454430041542046434454435B
:104B7000000000005244544300000000244F42440F
:104B80002D46524545455A2044415424204E4F4E0F
:104B90004500000041542044524F4E0041542042F1
:104BA00044415400F04C0008000000207800000050
:104BB000C4010008684D000878000020A00D000026
:104BC000E00100081C00000043000000F8FFFFFFA8
:104BD0000C0000000E0000000F0000002E0000007E
:104BE0001001000043000000F8FFFFFF00404040BC
:104BF00040404040404041414141414040404040B0
:104C0000404040404040404040404040400502025B
:104C1000020202020202020202020202022020201A
:104C20002020202020202002020202020202909076
:104C30009090909010101010101010101010101074
:104C400010101010101010100202020202028888C8
:104C500088888888080808080808080808080808D4
:104C600008080808080808080202020240000000BC
:104C70000000000000000000000000000000000034
:104C80000000000000000000000000000000000024
:104C90000000000000000000000000000000000014
:104CA0000000000000000000000000000000000004
:104CB00000000000000000000000000000000000F4
:104CC00000000000000000000000000000000000E4
:104CD00000000000000000000000000000000000D4
:104CE00000000000000000000000000000000000C4
:104CF00000000000007A030A00000000000000002D
:104D00000102030406070809000000000102030471
:104D1000010203040607080900000000000000006B
:104D200000000100000000009C4B0008944B0008AC
:104D3000584B0008684B0008604B0008084A000800
:104D4000FC490008744B00084C4B00081C4A000842
:104D5000E04A0008304A0008CC4A00083C4B0008F2
:084D60007C4B0008000000007C
:040000050800018965
:00000001FF
